:03000000020AB43D
:0C0AB400787FE4F6D8FD758149020AFB4A
:0A0C4600C0F9A4B0999282F88090E2
:100BA40008284E4F5448494E47000B1D534F555487
:100BB40048204F50454E000B084E4F525448204F8A
:100BC40050454E000A1345415354204F50454E00A2
:0C0BD4000A3057455354204F50454E0046
:0E0C2900E4FFFE0FBF00010EBE13F8BF88F5FA
:010C3700229A
:10090F008E3C8F3D7F01120C387F38120C38120C41
:10091F00297F80120C38120C297F0C120C38120C04
:10092F0029E53D6401453C70317FC0120C38120C33
:10093F0029E4F53AF53B7B007A007908120C01C3E4
:10094F00E53B9FE53A9E50127408120C16120C29C3
:10095F00053BE53B70E0053A80DCE53D6402453C34
:10096F0070317FC0120C38120C29E4F53AF53B7B3D
:10097F00007A00791D120C01C3E53B9FE53A9E50AA
:10098F0012741D120C16120C29053BE53B70E00585
:10099F003A80DCE53D6403453C70317FC0120C3872
:1009AF00120C29E4F53AF53B7B007A007913120C0F
:1009BF0001C3E53B9FE53A9E50127413120C1612B9
:1009CF000C29053BE53B70E0053A80DCE53D64040E
:1009DF00453C70317FC0120C38120C29E4F53AF502
:1009EF003B7B007A007930120C01C3E53B9FE53A5F
:1009FF009E50127430120C16120C29053BE53B70F9
:0B0A0F00E0053A80DC120C29020C29E3
:100BE100E4FDFCC3ED9FEC9E5015E4FBFA0BBB004A
:0F0BF100010ABA04F8BBFBF50DBD00010C80E44E
:010C000022D1
:040B40007F097E00AB
:040B44008E3C8F3D17
:100B4800783E7C007D007BFF7A0C79467E007F0A28
:100B58001208D0E4F580A93DE9D3953DE4953C50D1
:100B68003AE975F00A84754800F549D287C2A72486
:100B78003EF8E6F5807F967E00120BE1E975F00AF3
:100B88008485F0828E83C287D2A7AF82743E2FF805
:0B0B9800E6F5807F96120BE11980BD8E
:010BA300222F
:100A1A00E4F5B0D290C291C292D293C294C295D256
:100A2A0096C297C2A0D2A1C2A2C2A3C290C291D2B8
:100A3A00927F017E0012090F120B40C296D2977F55
:100A4A00047E00120B44C292D290C296C297D2A0E0
:100A5A007F027E0012090F120B40C293D2947F04C8
:100A6A007E00120B44C2A0D296C293C294D2957F42
:100A7A00037E0012090F120B40C2A1D2A27F047E8C
:100A8A0000120B44C295D293C2A1C2A2D2A37F0480
:100A9A007E0012090F120B40C290D2917F047E0091
:0A0AAA00120B44C2A3D2A1020A1DE0
:0E0C38008FB0C2A4C2A5D2A6120C29C2A62259
:050C1600253BF8E6FF9C
:0E0C1B008FB0D2A4C2A5D2A6120C29C2A62266
:100AC000020A1AE493A3F8E493A34003F68001F228
:100AD00008DFF48029E493A3F85407240CC8C33337
:100AE000C4540F4420C8834004F456800146F6DF06
:100AF000E4800B0102040810204080900BA4E47EE7
:100B0000019360BCA3FF543F30E509541FFEE493FA
:100B1000A360010ECF54C025E060A840B8E493A3C1
:100B2000FAE493A3F8E493A3C8C582C8CAC583CAEC
:100B3000F0A3C8C582C8CAC583CADFE9DEE780BEA4
:010BE0000014
:10080000E709F608DFFA8046E709F208DFFA803EDA
:1008100088828C83E709F0A3DFFA8032E309F608C7
:10082000DFFA8078E309F208DFFA807088828C832F
:10083000E309F0A3DFFA806489828A83E0A3F608E3
:10084000DFFA805889828A83E0A3F208DFFA804CBD
:1008500080D280FA80C680D4806980F28033801094
:1008600080A680EA809A80A880DA80E280CA8033FD
:1008700089828A83ECFAE493A3C8C582C8CCC58375
:10088000CCF0A3C8C582C8CCC583CCDFE9DEE78045
:100890000D89828A83E493A3F608DFF9ECFAA9F0C4
:1008A000EDFB2289828A83ECFAE0A3C8C582C8CC1A
:1008B000C583CCF0A3C8C582C8CCC583CCDFEADE33
:1008C000E880DB89828A83E493A3F208DFF980CC95
:1008D00088F0EF60010E4E60C388F0ED2402B4048E
:1008E0000050B9F582EB2402B4040050AF23234535
:0608F00082239008507302
:100C0100E4FFFE1208F6600C0FEF70010E09E970A7
:050C1100F20A80EF2251
:1008F600BB010689828A83E0225002E722BBFE0200
:09090600E32289828A83E4932232
:00000001FF
