:03000000020A539E
:0C0A5300787FE4F6D8FD758151020A9A04
:0A0C6300C0F9A4B0999282F88090C5
:100BB700081D4E4F5448494E47000B12534F55548A
:100BC70048204F50454E000A0845415354204F5086
:100BD700454E000A2557455354204F50454E0013A4
:100BE7002F446576656C6F70656420627920466175
:040BF70068696D00BC
:0E0C4600E4FFFE0FBF00010EBE13F8BF88F5DD
:010C5400227D
:100800008E448F457F01120C557F38120C55120C07
:10081000467F80120C55120C467F0C120C55120CA0
:1008200046E545640145447057F542F5437B007A3F
:10083000007912120C31C3E5439FE5429E501274B9
:1008400012120C1E120C460543E54370E00542806F
:10085000DC7FC0120C55120C46E4F542F5437B00D8
:100860007A00792F120C31C3E5439FE5429E501068
:10087000120C1C120C460543E54370E2054280DE73
:10088000E545640245447057F542F5437B007A0024
:100890007908120C31C3E5439FE5429E501274085B
:1008A000120C1E120C460543E54370E0054280DC45
:1008B0007FC0120C55120C46E4F542F5437B007ADA
:1008C00000792F120C31C3E5439FE5429E50101270
:1008D0000C1C120C460543E54370E2054280DEE540
:1008E00045640345447057F542F5437B007A00792F
:1008F00025120C31C3E5439FE5429E501274251228
:100900000C1E120C460543E54370E0054280DC7F77
:10091000C0120C55120C46E4F542F5437B007A00F8
:10092000792F120C31C3E5439FE5429E5010120C03
:100930001C120C460543E54370E2054280DE120CB2
:0409400046020C4619
:100BFC00E4FDFCC3ED9FEC9E5015E4FBFA0BBB002F
:0F0C0C00010ABA04F8BBFBF50DBD00010C80E432
:010C1B0022B6
:040B53007F057E009C
:040B57008E448F45F4
:100B5B0078467C007D007BFF7A0C79637E007F0AF0
:100B6B00120A14E4F580A945E9D39545E495445060
:100B7B003AE975F00A84755000F551D290C2A7245A
:100B8B0046F8E6F5807F327E00120BFCE975F00A21
:100B9B008485F0828E83C290D2A7AF8274462FF8E1
:0B0BAB00E6F5807F32120BFC1980BDC4
:010BB600221C
:100ADF00E4F5B0D293C294C295D296C297C2A0D277
:100AEF00A1C2A2C2A3C296C297D2A07F017E00125A
:100AFF0008007F147E00120B57C293D294120B532F
:100B0F00C2A0D296C293C294D2957F027E001208E1
:100B1F00007F0F7E00120B57C2A1D2A2120B53C23D
:100B2F0095D293C2A1C2A2D2A37F037E0012080066
:100B3F007F0A7E00120B57C296D297120B53C2A395
:040B4F00D2A1808F20
:0E0C55008FB0C2A4C2A5D2A6120C46C2A6221F
:070C1C00742F2543F8E6FFE9
:0E0C23008FB0D2A4C2A5D2A6120C46C2A62241
:100A5F00020ADFE493A3F8E493A34003F68001F2C4
:100A6F0008DFF48029E493A3F85407240CC8C33398
:100A7F00C4540F4420C8834004F456800146F6DF67
:100A8F00E4800B0102040810204080900BB7E47E35
:100A9F00019360BCA3FF543F30E509541FFEE4935C
:100AAF00A360010ECF54C025E060A840B8E493A323
:100ABF00FAE493A3F8E493A3C8C582C8CAC583CA4E
:100ACF00F0A3C8C582C8CAC583CADFE9DEE780BE06
:010BFB0000F9
:10094400E709F608DFFA8046E709F208DFFA803E95
:1009540088828C83E709F0A3DFFA8032E309F60882
:10096400DFFA8078E309F208DFFA807088828C83EA
:10097400E309F0A3DFFA806489828A83E0A3F6089E
:10098400DFFA805889828A83E0A3F208DFFA804C78
:1009940080D280FA80C680D4806980F2803380104F
:1009A40080A680EA809A80A880DA80E280CA8033B8
:1009B40089828A83ECFAE493A3C8C582C8CCC58330
:1009C400CCF0A3C8C582C8CCC583CCDFE9DEE78000
:1009D4000D89828A83E493A3F608DFF9ECFAA9F07F
:1009E400EDFB2289828A83ECFAE0A3C8C582C8CCD5
:1009F400C583CCF0A3C8C582C8CCC583CCDFEADEEE
:100A0400E880DB89828A83E493A3F208DFF980CC4F
:100A140088F0EF60010E4E60C388F0ED2402B40448
:100A24000050B9F582EB2402B4040050AF232345EF
:060A340082239009947377
:100C3100E4FFFE120A3A600C0FEF70010E09E97031
:050C4100F20A80EF2221
:100A3A00BB010689828A83E0225002E722BBFE02BA
:090A4A00E32289828A83E49322ED
:00000001FF
